:020000040800F2
:10000000C8070020010300081D2B0008012A000872
:10001000192B000875150008B52D00080000000018
:10002000000000000000000000000000252B000878
:10003000B915000800000000212B0008292B00083A
:100040001B0300081B0300081B0300081B03000818
:100050001B0300081B0300081B0300081B03000808
:100060001B0300081B0300081B0300081B030008F8
:100070001B0300081B0300081B0300081B030008E8
:100080001B0300081B0300081B0300081B030008D8
:1000900079150008851500081B0300081B030008DC
:1000A0001B0300081B0300081B0300081B030008B8
:1000B0001B0300081B0300081B0300081B030008A8
:1000C0001B0300081B0300081B0300081B03000898
:1000D0001B0300081B0300081B0300081B03000888
:1000E0001B0300081B0300081B0300081B03000878
:1000F0001B0300081B0300081B0300081B03000868
:100100001B0300081B0300081B0300081B03000857
:100110001B0300081B0300081B0300081B03000847
:100120001B0300081B0300081B0300081B03000837
:100130001B0300081B0300081B0300081B03000827
:100140001B0300081B0300081B0300081B03000817
:100150001B0300081B030008AD1500081B03000863
:100160001B0300081B0300081B0300081B030008F7
:100170001B0300081B0300081B030008000000000D
:100180001B0300081B03000800F002F800F0A8F8A9
:1001900014A696E8000CB244B344DA4501D100F04D
:1001A0009FF8BAE80F000FA696E83000A5EB04050B
:1001B00004EB0607AAEB0704A7F101074FEA1515A0
:1001C0004FEA3414A4F10104AC4201D300F088F8E2
:1001D00013F0010F18BFFB1A43F0010300F001F800
:1001E000DBE71847BC350000DC350000103A24BFBF
:1001F00078C878C1FAD8520724BF30C830C144BF8C
:1002000004680C6070470000704700000023002461
:1002100000250026103A28BF78C1FBD8520728BF16
:1002200030C148BF0B6070476E2900F0DB81702938
:1002300000F01D83662903F02082652903F01D82EA
:10024000672903F01A82612903F0198203681B0AE7
:1002500028BF41F08001692900F08881642900F0FD
:100260008581752900F082816F2900F0AB827829A1
:1002700000F0E982E92900F04582E42900F0428299
:10028000F52900F03F82EF2900F0A882F82900F05C
:10029000E8820368DB0928BF41F08001632900F090
:1002A000E987732900F0EE87E32900F0F987F32945
:1002B00000F0FE87002070471FB503F0D1F901F070
:1002C0004DF804000020002103F0B4F9401C6060E8
:1002D0000020002103F098F9E0601FBD10B510BDAB
:1002E00001F00EF81146FFF7E7FF02F065FD01F09F
:1002F000EBF803B4FFF7F2FF03BC01F033F90000A1
:100300000948804709480047FEE7FEE7FEE7FEE7A9
:10031000FEE7FEE7FEE7FEE7FEE7FEE704480549E5
:10032000054A064B70470000D52B000889010008DC
:10033000C8010020C8070020C8030020C80300200F
:1003400053EA020C00F069802DE9F04B4FF00006F3
:10035000002B1FBFB3FA83F503FA05F424FA05F660
:100360005E4012BF1643B2FA82F502FA05F4C5F1F7
:1003700020051EBF22FA05FC44EA0C04203556EA8B
:10038000044C4FEA144418BF641C4FF000084FF0AF
:100390000009904271EB030C39D3002919BFB1FA5F
:1003A00081F701FA07F6B0FA80F700FA07F6C7F10D
:1003B00020071EBF20FA07FC46EA0C062037B6FBD2
:1003C000F4FCA7EB0507103F07F01F0BCBF120064D
:1003D0002CFA06F60CFA0BFB44BFB3460026202F7E
:1003E000A4BF5E464FF0000B5BEA060C08BF4FF05F
:1003F000010B19EB0B0948EB0608ABFB027C06FB73
:1004000002CC0BFB03CCC01B71EB0C01C1E70B460C
:10041000024641464846BDE8F08B13B5084318BF75
:100420004FF0FF300146AFF30080BDE81C4070473D
:100430001CB50C46064B7B4469460090204600F0F4
:10044000EAF804460020694600F0F8F820461CBD92
:10045000030200004FF0000200B513469446964692
:10046000203922BFA0E80C50A0E80C50B1F12001C7
:10047000BFF4F7AF090728BFA0E80C5048BF0CC075
:100480005DF804EB890028BF40F8042B08BF7047D3
:1004900048BF20F8022B11F0804F18BF00F8012B45
:1004A000704770477047704770B5044685690068AB
:1004B000C10601D5302600E02026C00707D070BD58
:1004C000D4E9012130469047206A401C20626D1E0D
:1004D000F6D570BD70B5044685690078C00707D1B0
:1004E00070BDD4E9012120209047206A401C206281
:1004F0006D1EF6D570BD09684A0501D540B270473A
:10050000C905FCD500B2704709684A0501D5C0B2DB
:100510007047C905FCD580B2704770B50C460546DA
:10052000012A05D02878800600D5EA69002302E078
:10053000012305E05B1C934202D2E05C0028F9D164
:10054000A869E618C01AA861286A184428622846D3
:10055000FFF7AAFF04E0D5E9012114F8010B904749
:10056000B442F8D32846FFF7B5FF70BD2DE9F0413E
:100570000646002410687529314616A510D0FFF7ED
:10058000BAFF002802DA404213A507E031688A0763
:1005900001D512A502E0490704D511A5012401E007
:1005A000FFF7B2FF00210A2206F1240709E0B0FBA1
:1005B000F2FCB0FBF2F302FB1C003030785418461A
:1005C000491C0028F3D123462A463046BDE8F041B5
:1005D00000F061BA000000002D0000002B000000B8
:1005E0002000000011680268006A530501D50870F8
:1005F0000AE0D30501D5088006E0130603D5C2172B
:10060000C1E9000200E008600120704701694A1C4E
:1006100002610878704700B58FB0CDE90131002143
:10062000059105497944CDE903101146684600F06B
:1006300029F90FB000BD0000E5FFFFFF0A6802F8CE
:10064000010B0A60704700002DE9FF5F15468A46DE
:100650000446DFF8AC80F8440027D8E900103E4695
:10066000CDE9001010E03AF816106A4602A800F032
:1006700023FE411C07D02178890603D5E269391889
:1006800091420DD80744761C2078800602D5E06997
:10069000B84205DDAE42E6DB3AF816000028E2D1AA
:1006A000A069C01BA0612046FFF7FEFED8E900103C
:1006B000CDE90010002017E03AF818106A4602A8A9
:1006C00000F0FAFDB0F1FF3F81460BD000250DF19F
:1006D000080B05E0D4E901211BF8050090476D1CCB
:1006E0004D45F7D308F10100B0428046E4DB206AB3
:1006F000384420622046FFF7EDFEBDE8FF9F000072
:100700002A3000002DE9F0418046D21D22F0070278
:100710000025D2E90002F52915A614D0011E72F1B8
:10072000000106DA0023D0EB030063EB020211A6FE
:1007300008E0D8F800108B0701D50FA602E04907A2
:1007400001D50EA601251146002408F1240704E076
:1007500000F05CF930323A55641C50EA0102F7D1DE
:100760002B46324621464046BDE8F04100F093B9A1
:10077000000000002D0000002B0000002000000001
:1007800030B4002100F1240408E002F00705D2088B
:10079000303542EA4372DB086554491C52EA0305CE
:1007A000F3D10468002310A2250708D504F0200423
:1007B0000C4304D0C46901230CA2641EC46130BC84
:1007C00000F069B910B5044621461068FFF79CFE99
:1007D00002462046BDE810400023D1E7D21D22F09A
:1007E0000701D1E90023CBE7000000003000000042
:1007F000F0B40D460188090502D5214C7C4402E085
:100800001F4C7C440E34002100F1240608E002F065
:100810000F071209E75D42EA03721B097754491C6E
:1008200052EA0307F3D102780023120704D5702D92
:1008300006D009B1022311342246F0BC00F02BB9D6
:1008400001231034F8E770B504460D4621461068C0
:10085000FFF75AFE024629462046BDE870400023B5
:10086000C6E7D21D22F00703D3E90023C0E70368DF
:10087000126843F0200303600823C3610023B7E735
:100880008C2E00002DE9F05F894604464FF0000AE7
:10089000DFF874B1FB44C0F820A02046E168884727
:1008A000002874D0252806D0D4E901219047206A79
:1008B000401C2062F1E700265F462046E168884739
:1008C0002028054607DB312D05D2781910F8200CB9
:1008D00008B10643F1E7B00701D526F00406C4F8D5
:1008E0001CA00027C4F818A02A2D09D0284602F021
:1008F00083FE38B304EB8708303DC8F8185019E080
:1009000059F8041B204604EB87029161E16888478F
:10091000012F054618D1E069002820DA26F02006CC
:100920001DE0D8F8180000EB800005EB40003038DF
:10093000C8F818002046E1688847054602F05CFECA
:100940000028EED1012F0AD02E2D08D12046E168D3
:1009500088477F1C0546022F46F02006C4DBA069AD
:10096000002803DA404246F00106A061F00701D0FA
:1009700026F010066C2D0BD0682D09D04C2D39D0E7
:100980006A2D35D0742D35D07A2D33D016E038E06D
:10099000E1682F4620468847B842054609D16C2FAA
:1009A00026D04FF48060E16806432046884705461C
:1009B00004E06C2F1AD04FF4807006430DB3A5F1FC
:1009C0004100192802D8203546F400664A462946D7
:1009D000204626604E46FFF727FC80B101280BD049
:1009E000F61D26F0070000F1080956E74020E4E76D
:1009F0008020D8E70020D6E706F104094DE7284615
:100A000052E7206ABDE8F09F1C2E000030B5B0F11F
:100A10000A0271F100034FEA900E4EEA817EB0EBBC
:100A20000E0061EB91014FEA101E4EEA017E10EBC1
:100A30000E0041EB11114FEA102E4EEA016E10EB41
:100A40000E0041EB11214FEA104E4EEA014E10EB21
:100A50000E0041EB1141401841F100014FEAD00076
:100A600040EA41704FEAD1014FEA810444EA9074B0
:100A700010EB800544EB01046D1944EB0404521B98
:100A8000A3414FF0000348BF0A3200D530BD401CDF
:100A900041F1000130BD2DE9F0470D4699469246DF
:100AA000044600F124080168880604D5E06921F0B5
:100AB0001001216000E00120A84201DD471B00E099
:100AC0000027A1697A1902EB0900081AA0612078B1
:100AD000C00602D42046FFF7E7FC002608E0D4E970
:100AE00001211AF806009047206A401C761C2062FB
:100AF0004E45F4DB2078C0060AD52046FFF7D4FC2B
:100B000006E0D4E9012130209047206A401C206291
:100B1000381EA7F10107F4DC07E0D4E9012118F839
:100B200005009047206A401C2062281EA5F101059F
:100B3000F3DC2046FFF7CEFC2078000602D5022029
:100B4000BDE8F0870120FBE72DE9FF4F0C461E466C
:100B50004FF0FF378BB0D2E90001DDF860800A90DA
:100B60008A46C1F30A5505B93D46002108464FF0B3
:100B70000000BAF1000F00F4400005DA00EB80003D
:100B80004FF4400101EA50004FEA9059B9F1010FCA
:100B900000DDB9460A9850EA4A000ED044F61050DB
:100BA000A5F2FF3545432F14B8F1000F1ED0754252
:100BB000291E1EDDC9F100021CE0B8F1010F4FF043
:100BC000000001D0302103E0F24305E02154401C35
:100BD000B042FBDB30460022002121540B99C1F8C2
:100BE0000880C1E900200FB0BDE8F08FBD1B6D1C6F
:100BF000DEE74A4600DA694206A800F0F3FB06ABDE
:100C000093E8070003AB83E8070050460A9902F017
:100C100012F98DE80700A0F500501F3800900398E6
:100C2000002D0ADD42F21F014A460844002303A9B1
:100C30000390684602F07CFB09E0A0F500504A46AC
:100C40001F38002303A90390684602F086FB8DE855
:100C500007000004000C03D04FF0FF30410800E013
:100C60001046B8F1000F03D00022009215461EE096
:100C7000751E05D4FFF7CAFE303262556D1EF9D5D8
:100C8000B3460122084302D000227F1C04E02078F2
:100C9000302801D100227F1E002A099784D01DE050
:100CA000112D07DAFFF7B2FE303262556D1C50EAA3
:100CB0000102F5D1084302D00098C8B10EE000212E
:100CC000681E05E0235C625C63542254401E491C8C
:100CD0008142F7DBAB46A81B401E0990002004F8B8
:100CE0000B000B98099AC0F80880C0E9002B7AE73E
:100CF00011264FF0000857E72DE9F04F88460446CB
:100D0000D21D22F0070191B0D1E90001CDE90A011D
:100D100002F05AFC02460B98C00F01D02D2007E0CC
:100D20002068810701D52B2002E0202101EAC000C4
:100D3000032A099001D0072A05DB034641462046D5
:100D400000F010FB0BE12078800601D5E06900E09F
:100D50000620B8F1650F814606D0B8F1660F18D0AD
:100D6000B8F1670F70D131E00020B9F1110F009098
:100D700001DB112301E009F101030AAA01A90CA872
:100D8000FFF7E2FEDDE90C70002609F1010583465C
:100D900047E001204B4600904FF000470AAA01A906
:100DA0000CA8FFF7D1FEDDE90DB00C995D460026D9
:100DB00010B909F101000D18B9EB050003D4C0F119
:100DC000FF3609F10105A5EB09002BE0B9F1010F90
:100DD00001DA4FF001090020B9F1110F00904846E7
:100DE00001DD112300E003460AAA01A90CA8FFF7C0
:100DF000ABFEDDE90C704D460026834620780007E7
:100E00000AD4AB4500DA5D4601A8012D04DD411985
:100E100011F8011C302907D04F4502DA17F1040FF1
:100E200004DA012082460FE06D1EEEE7002F02DC9F
:100E3000ED1B3E4403E0781CA84200DD7D1CB81B7E
:100E400000F1010A4FF000472078000703D4AA45BB
:100E500001DB4FF0FF3A0021B7F1004F0DF14308DD
:100E60008DF8431024D002202B23002F01DA7F427B
:100E70002D230A21021EA0F1010000DC5FB197FBC7
:100E8000F1FC97FBF1F201FB1C7C17460CF1300CD6
:100E900008F801CDEEE7A8F10100037021880905EB
:100EA00001D5452100E06521A0F1010800F8011CF1
:100EB00009980FA9A1EB0807FF1D00B101204119F6
:100EC00001EBEA70A1693844081A401EA06120783D
:100ED000C00602D42046FFF7E7FA099828B1D4E902
:100EE00001219047206A401C20622078C00622D54C
:100EF0002046FFF7D9FA1EE0002E04DBB34502DDE1
:100F000001A8805D00E03020D4E901219047206AEB
:100F1000401C2062761CAAF101005FEA000A0AD197
:100F200000F01CFAC0680168405CD4E901219047D8
:100F3000206A401C2062281EA5F10105DCDC07E0C8
:100F4000D4E9012118F8010B9047206A401C206267
:100F5000381EA7F10107F3DC2046FFF7BBFA032098
:100F600011B041E62DE9F04F04460D46D21D22F0A6
:100F7000070089B0D0E900974846394602F024FBC3
:100F80000246F80F01D02D2307E02068810701D524
:100F90002B2302E0202101EAC0038DF820300BB1A1
:100FA000012000E00020032A824601D0072A04DB4A
:100FB0002946204600F0D6F93FE12078800601D48A
:100FC0000D2500E0E569C7F30A560D2D49DA002129
:100FD0004FEA175B08464FF00000002F00F4400076
:100FE00007DA00EB80004FF4400100EBD07001EA1B
:100FF00060008115012901DD4FF0FF3100224FEA29
:10100000850CBCF1180F06D31346ACF118004FF055
:101010008052C24003E04FF4801323FA0CF30CF12A
:101020000C0CBCF1200F04D3ACF1200C09FA0CF02D
:1010300001E007FA0CF000294FF0004801DD18B973
:101040000FE00ED140450CD319EB02095F4121B9E5
:10105000404502D19F4329EA0209BBEB175F00D04C
:10106000761C2088000502D57B48784402E07A4847
:101070007844193808AA302302F80A30037C0AF1B0
:101080000101002E0AF1020A53546A4602DC4FF0B5
:10109000300101E04FF031014FF001088DF80010F0
:1010A00002D0A6F2FF3603E059EA470100D06B4EAA
:1010B000002D02DC2178090704D54FF002082E210B
:1010C0008DF80110C44600210BE0C7F303433F0134
:1010D000C35C491C6D1E02F80830052908F101089F
:1010E00001DA002DF1DC00210CE000EB1973491C42
:1010F0001B786D1E082902F808304FEA091908F11B
:10110000010801DA002DF0DC21688B0602D516E01B
:10111000A8F10108E04505DD02EB080313F8013CE6
:10112000302BF5D0B8F1000F09DD02EB080313F8FE
:10113000013C2E2B03D1090701D4A8F10108002D91
:1011400005DD3E2102F808106D1E08F10108407C03
:10115000002E02F8080008F1010804DA2D2076427A
:1011600002F8080002E02B2002F808000A214FF4E0
:101170007A70864208F101080BDB96FBF0F33033FE
:1011800002F8083096FBF0F308F1010800FB136643
:1011900001E0642E0CDB642096FBF0F3303302F8A0
:1011A000083096FBF0F308F1010800FB136601E03C
:1011B0000A2E06DB96FBF1F0303002F8080008F149
:1011C000010896FBF1F001FB1060303002F80800D6
:1011D000A16908F1010808EB050202EB0A00081AF0
:1011E000A0612078C00602D42046FFF75DF9216A8D
:1011F00008AE01EB0A00206204E0D4E9012116F8F0
:10120000010B9047BAF1010AF7D22078C00602D547
:101210002046FFF749F96E4609E016F8010B3E2813
:101220000FD0D4E901219047206A401C2062B8F118
:101230000108F2D22046FFF74DF909B00320BDE8BE
:10124000F08F206A2844206203E0D4E90121302095
:1012500090476D1EEBD3F8E76A26000002FCFFFF03
:1012600010B5436913B1AFF3008001E0FFF755F902
:10127000012010BD127800F124010A7000224A708A
:101280000122EDE711684FF0FF32E9E710B543693D
:1012900013B1AFF3008001E0FFF7D6F9012010BDD4
:1012A000128800F1240182840022C2840122EDE729
:1012B00011684FF0FF32E9E72DE9F04116460C4680
:1012C000054600F043F8036893F80101012807D0B0
:1012D000FF2C12D8185D80B101202C70BDE8F08180
:1012E000D3F807013246214603F20713C7182846F0
:1012F000BC46BDE8F041002360474FF0FF30EDE70A
:10130000754600F0EBF8AE4605006946534620F0FE
:101310000700854618B020B5FFF700F8BDE820406B
:101320004FF000064FF000074FF000084FF0000BA1
:10133000AC46ACE8C009ACE8C009ACE8C009ACE810
:10134000C00921F007018D467047000010B500F07C
:1013500005F8001D10BD00BFDD22000000487047E9
:10136000300000202DE9F0411F46044603260168A5
:10137000072A01F4006004DB08B116A505E016A5F4
:1013800003E008B115A500E015A521F010002060CC
:10139000A069C01EA0610FB1401EA0612046FFF7EA
:1013A00083F84FB1D4E9012138469047206A401CA8
:1013B0002062C01C206206E0206AFAE7D4E901211D
:1013C00015F8010B9047761EF8D22046FFF782F8F9
:1013D000BDE8F0814E414E006E616E00494E460000
:1013E000696E66002DE9F047814616468AB0354899
:1013F00078440DC88DE80D0032487844801C03AC59
:101400000DC884E80D0041F69B300844372190FB5D
:10141000F1F290FBF1F5A5F1800501FB12041B3CF4
:1014200002D56442012000E00020DFF898A0804649
:101430000027FA44AAF1BE0A0EE0E0070AD03246BD
:10144000684607EB470101230AEB810101F085FFA4
:101450008DE8070064107F1C002CEED1194F7F44EB
:10146000AE3F19E0E80715D007EB04100DF1180A9C
:1014700090E80E008AE80E00C068F04201D1981989
:1014800008903246012306A903A801F066FF03ABCA
:1014900083E807006D10641C002DE3D14FF00103B9
:1014A00032466946B8F1000F03A802D001F040FFB0
:1014B00001E001F052FFC9E90001C9F808200AB0B3
:1014C000BDE8F0877423000010B50446AFF3008038
:1014D0002046BDE81040FEF70CBF000000487047F2
:1014E000100000200000000030B44FF0013C50F824
:1014F000042B51F8043BCCFA52F4D51A20D1FCB994
:1015000050F8042B51F8043BCCFA52F4D51A17D1F9
:10151000B4B950F8042B51F8043BCCFA52F4D51A64
:101520000ED16CB950F8042B51F8043BCCFA52F4AC
:10153000D51A05D1002CDAD030BC4FF0000070472E
:1015400029BAB1FA81F111F01801D1F120008440DB
:10155000F2D1CA40CB4012F0FF0213F0FF0330BCBF
:10156000D01A704701491820ABBEFEE726000200E2
:1015700070470000FEE7000040F27400C2F2000075
:1015800000F0C4B840F27400C2F2000000F0BEB82F
:1015900010B5044600F0EEFA2046022100F012F8E1
:1015A00020461021BDE8104000F00CB840F29C002D
:1015B000C2F2000000F01ABB7047000072B600BF14
:1015C000FEE7000090F82020013A012A04D80068C4
:1015D00000F11402002004E000F1240201204FF485
:1015E00080211368194311607047000070470000A4
:1015F000B0B590F82040013C012C78D8046800294F
:101600000CBFE4682469A40777D004684FEA011C82
:1016100004F5D87555F80C4014F00404946055F89E
:101620000CE005EB011C19BF4FEADE0555604FEADF
:101630005E551560DCF80050E64605F00205D56001
:101640005EF8044F24075ABFDEF8004004F00F0490
:1016500008241461DEF800400029C4F307249461D3
:10166000DEF800504FEA15455561DCF808201A7085
:10167000026802EB0112D2F8B8214FEA12225A7026
:10168000026802EB0112D2F8B8214FEA12429A70B6
:10169000026802EB0112D2F8B8214FEA1262DA7046
:1016A000026802EB0112D2F8BC211A71026802EB47
:1016B0000112D2F8BC214FEA12225A71026802EBE1
:1016C0000112D2F8BC214FEA12429A71026802EB71
:1016D0000112D2F8BC214FEA1262DA7100680CBF25
:1016E00000F10C0100F11001002020220AE000F1BD
:1016F000240101204FF4802204E000F124010120A4
:101700004FF400120B681A430A60B0BD2DE9F04F88
:1017100081B0044600684669D0F804908768D0F824
:101720000CB0D0F810A0D0F81880F10703D1002534
:1017300030071CD423E0F90710D00121BA078160DB
:1017400009D4780700F1AA80380700F1B08020465C
:1017500000F03EFA02E0204600F03CFA0025F805D1
:1017600000F18480F80300F1AA80300707D51BF050
:10177000100004D0206845F400751021C160700786
:1017800008D51BF0080005D020680821C16020465C
:1017900000F0A0F9B00706D52068C068800702D025
:1017A000204600F099F9700607D51AF0100004D011
:1017B000206845F4806510210161B00608D51AF053
:1017C000080005D0206808210161204600F0CCF90E
:1017D000F00606D520680069800702D0204600F098
:1017E000C5F9B00308D519F0100005D02068102104
:1017F0004160204600F0BCF9F00308D519F008005C
:1018000005D0206808214160204600F0EDF9300441
:1018100040F18F805FEA497040F1888006F4807063
:1018200008EA102028435FEA8871014648BF41F06A
:101830000201B20558BF01465FEA48700D4648BF35
:1018400045F00405700558BF0D4630056ED518F0FB
:1018500070006BD010380009052862D8DFE800F06E
:10186000035C5659535F45F008055AE020684FF471
:101870008071BA0581600AD4780512D4380519D46C
:10188000204600F0A9F9F8037FF56FAF17E0204676
:1018900000F0A4F9F8037FF568AF10E04FF400659D
:1018A0005DE705F50055F8037FF55FAF07E04FF4FE
:1018B000805554E705F58045F8037FF556AF20685D
:1018C0004FF48031BA0381600AD478030FD438030F
:1018D00013D4204600F084F930073FF548AF4EE7B7
:1018E000204600F07FF930073FF541AF47E705F5A7
:1018F000004530073FF53BAF41E705F58035300740
:101900003FF535AF3BE745F080050AE045F020059F
:1019100007E045F0400504E045F0100501E045F41E
:1019200080752068816921F070018161206804213F
:1019300041604DB1606A40EA05012046616201B034
:10194000BDE8F04FFFF752BE01B0BDE8F08F0000D8
:10195000002804BF01207047B0B5044690F820006D
:1019600010B9204600F06EF82068016841F00101CE
:10197000016000F0B9FB054620684168C90705D140
:1019800000F0B2FB401B0B28F6D310E0016821F0F9
:101990000201016000F0A8FB054600BF2068416815
:1019A00089070DD500F0A0FB401B0B28F6D3606A19
:1019B000052140F400306062012084F82010B0BDA1
:1019C000217E0268012922F0800208BF8032026075
:1019D000617E0268012922F0400208BF40320260A5
:1019E000A17E0268012922F0200208BF2032026095
:1019F000E17E0268012922F0100218BF1032026055
:101A0000217F0268012922F0080208BF0832026023
:101A1000617F0268012922F0040208BF04320260DB
:101A2000D4E901C2D4E9033561691A432A43114359
:101A3000ACF101021143C16100200121606284F810
:101A40002010B0BD80B586B046F200410068C4F2F7
:101A50000001002288420592CDE903220292019200
:101A600001D006B080BD43F630000092C4F20200FF
:101A7000036943F000730361036903F0007300938B
:101A8000009B0092036843F0080303600068022390
:101A900000F00800009000980320019004900920B5
:101AA000059001F5D43001A9CDE9023200F052FAD7
:101AB00014200021002200F09DFB142000F088FB80
:101AC00015200021002200F095FB152000F080FB7E
:101AD00006B080BD7047000080B58AB003AA01AB94
:101AE0000021FFF785FD40BB059830BBBDF80C0019
:101AF00040F20121884220D1BDF8040040F270017B
:101B0000C2F2000100BA0A68010C5180BDF806C09B
:101B10009CFA8CF31B0C1380BDF8083018BA000C2B
:101B200090809DF80AE0DBBA82F806E09CFABCF2ED
:101B300003A0CDF800E001F061F90AB080BD00BF5C
:101B4000616E676C653A25642073706565643A253B
:101B5000642063757272656E743A25642074656DD5
:101B6000703A2564000000007047000070470000D4
:101B700070470000B0B5044690F8200001281DD140
:101B8000022084F820002068016821F00101016032
:101B900000F0AAFA054600BF20684068C00713D0CD
:101BA00000F0A2FA401B0B28F6D3606A40F4003024
:101BB0006062052084F820000120B0BD606A40F416
:101BC000002060620120B0BD00206062B0BD000056
:101BD0007047000070470000704700007047000029
:101BE000704700007047000070470000F0B581B0FA
:101BF0000021009140F20001C2F200010B68D0E91F
:101C0000166148F2B51537680822C1F64E358A408C
:101C10003A42A3FB05350CD003681C68640708D55D
:101C20001C6824F004041C60B260426D42F00102A2
:101C3000426501228A403A4208D003685B691B066C
:101C400004D5B260426D42F00202426504228A402D
:101C50003A4208D003681B689B0704D5B260426D06
:101C600042F00402426510228A403A4216D00168CE
:101C70000B681B0712D5B2600B680A685B0306D4B9
:101C8000D20506D40A6822F008020A6001E01103B6
:101C90003FD4016C11B1044688472046C26D202113
:101CA00001FA02F33B4241D001680F68FF063DD5BF
:101CB000B36090F835700B68052F1AD123F0160326
:101CC0000B604B6923F080034B61036C0BB9836C91
:101CD0001BB10B6823F008030B603F219140B160FA
:101CE000012180F83510016D002280F83420D9BB25
:101CF0003EE00A685B0310D4D20512D40A6822F0D1
:101D000010020A60012180F83510002180F834109B
:101D100007E0816C0029BED1C0E7110301D4416CFA
:101D200000E0C16B11B1044688472046416DF9B10E
:101D3000416DC90716D0052180F835100168AA0A3F
:101D40000B6823F001030B60009B01339342009367
:101D500002D80B68DB07F7D1012180F8351000218C
:101D600080F83410C16C19B101B0BDE8F0400847EB
:101D700001B0F0BD2DE9F041044600F0B5F9C4B161
:101D80000546022084F835000020216884F83400DC
:101D9000086820F00100086020680168C9070BD0BE
:101DA00000F0A2F9401B0528F6D9032120220320C8
:101DB0007AE00120BDE8F081016848F23F02CFF2ED
:101DC0001002D4E9013501EA020ED4E9032143EA05
:101DD0000E032B43D4E9056C1A43D4E90778114369
:101DE000314341EA0702616A42EA0802042942EAF1
:101DF0000C0303D1D4E90B273A4313430360426930
:101E0000042922F0070241EA02012DD1D4E90A5344
:101E100041EA050143B3BCF5005F08D0BCF1000FF7
:101E200012D1022D16D0012D07D09DB119E0032D3E
:101E300017D8DFE805F00B0F0B02A3F1C072B2FA5E
:101E400082F252094AB90FE0032D02D2012222B9CF
:101E50000AE006D1C3F3006232B101214022012021
:101E600022E00022002AF8D100F0F8024AF6AB2363
:101E7000103ACAF6AA23A2FB033743F298734161D2
:101E80003909C0F60003595C40F2FF3398435F2ADA
:101E90004FF03F0288BF0430C4E9160102FA01F195
:101EA0008160002201210020626584F83510BDE8C0
:101EB000F081000090F834C0BCF1010F04BF022093
:101EC000704770B54FF0010C80F834C0D0F858E07E
:101ED00090F835C0BCF1010F37D14FF0020C80F8FB
:101EE00035C04FF0000CC0F854C0D0F800C0846872
:101EF000056CC06DDCF80060402C26F48026CCF820
:101F00000060CCF804300B4604BF13460A463F215C
:101F100001FA00F0CCF80830CCF80C20CEF808001C
:101F2000DCF8000040F01600CCF800002DB1DCF821
:101F3000000040F00800CCF80000DCF8000040F0A1
:101F40000100CCF80000002070BD002180F83410A2
:101F5000022070BD2DE9F04F83B000F1200200F1A6
:101F60003E4741F60045009207F1FF77C4F20205B3
:101F700008224FEAB726A84208BF0722072E38BF1B
:101F80004FEAB72200274FF0000A4FF000080192F5
:101F90000AE000BF08F101080AF1020AB8F1100FC7
:101FA00007F1040700F09D800D68012202FA08FC89
:101FB00015EA0C09EED04D68032205F0030BABF1D6
:101FC0000106012E02FA0AFE10D88668CC6826EABD
:101FD0000E0604FA0AF4344384604468C5F300151D
:101FE00024EA0C0605FA08F52E434660BBF1030F00
:101FF0001BD0C6688D6826EA0E0605FA0AF52E4340
:10200000BBF1020FC66010D16FF00302009D02EA1F
:10201000580655F806C007F01C040F220B69A240B1
:102020002CEA0202A3401A43AA5102684B6822EA32
:102030000E0203F0030606FA0AF6324313F4403F99
:102040000260A7D0002243F644030292C4F20203C6
:102050001A6843F6004442F480421A601A68C4F2D7
:10206000010402F480420292029A28F003024FF621
:10207000084C2244CFF6FF7C52F80C3007F00C06D7
:102080000F25B540AB43019D05FA06F6334342F8F0
:102090000C30A2684B6842EA090643F60C4CDD029C
:1020A00058BF22EA0906A660C4F2010CDCF8002041
:1020B0009D0242EA090658BF22EA0906CCF80060F0
:1020C00062689D0342EA090658BF22EA0906666073
:1020D0002268DB0342EA090658BF22EA09062660A5
:1020E00058E703B0BDE8F08F40F2C410C2F2000020
:1020F0000068704740F2040040F2C411C2F20000D0
:10210000C2F2000100780A681044086070470000BD
:1021100080B543F60040C4F20200016841F400714A
:102120000160016841F480610160016841F48071DF
:102130000160032000F08AF80F2000F005F800F09D
:102140002BF8002080BD0000B0B540F20402C2F2BE
:10215000000240F200011278C2F200014FF47A73DB
:102160000968B3FBF2F20446B1FBF2F1084600F055
:1021700039FB0F2C4FF001050CD858B94FF0FF3048
:1021800021460022002500F035F840F20800C2F296
:10219000000004602846B0BD82B0002043F6400134
:1021A0000190C4F202014A6842F480424A604A68DF
:1021B00002F480420192019A0090086840F0805039
:1021C0000860086800F080500090009802B07047E6
:1021D000002848BF704700F01F01012202FA01F1F8
:1021E0001C2202EAD0004EF20012CEF20002815010
:1021F0007047000010B54EF60C5CCEF2000CDCF817
:102200000030C3F3022E8EF00704042C28BF0424F0
:10221000BEF103034FF0FF3E0EFA04F438BF002373
:10222000A14399400EFA03F39A43114300F160422F
:1022300000F00F03090102F56442043B63440028E7
:1022400048BF03F10C02117010BD00004EF60C5196
:10225000CEF200010A684FF6FF031A4060F30A222B
:1022600042F0806040F0FD7008607047002804BFB5
:10227000012070472DE9F04143F60808C4F2020836
:102280000446D8F8F8030D4600F00700814207D94C
:1022900088F8F853D8F8F80300F00700A84276D180
:1022A0002068810717D5410705D5D8F8001041F4FB
:1022B000E051C8F80010010705D5D8F8001041F426
:1022C0006041C8F80010D8F80010A26821F0F001B1
:1022D0001143C8F80010C0073FD1D8F8F80300F048
:1022E0000700854207D288F8F853D8F8F80300F0C1
:1022F0000700A8424BD12068410707D5D8F8001045
:10230000E26821F4E0511143C8F80010000708D535
:10231000D8F80000216920F4604040EAC100C8F804
:10232000000000F07BF8D8F8001043F28072C1F38F
:102330000311C0F60002515C40F2000220FA01F1E4
:1023400040F20800C2F200000068C2F20002116010
:10235000FFF7FAFE0020BDE8F0816068811E0229C7
:1023600007D258F8081C89015CBF0120BDE8F08144
:1023700010E0012807D158F8081C89035CBF012030
:10238000BDE8F08106E058F8081C890702D4012056
:10239000BDE8F081D8F8001021F003010843C8F827
:1023A0000000FFF7A1FE064641F28837D8F800008A
:1023B000616800F00C00B0EB810F8ED0FFF794FE47
:1023C000801BB842F2D90320BDE8F08140F2000042
:1023D00043F60801C2F20000C4F202010068096875
:1023E00043F29072C1F38221C0F60002515CC840F2
:1023F0007047000040F2000043F60801C2F20000FE
:10240000C4F202010068096843F29072C1F34231DC
:10241000C0F60002515CC8407047000010B543F69A
:102420000404C4F202046168C1F3810142F2004075
:10243000C0F2F400DFE801F00203080210BD47F625
:102440004000C0F27D1010BD206821682368490259
:1024500047F64001C0F27D1100F03F02C3F388103F
:102460005CBF42F20041C0F2F401A1FB0001002375
:10247000FDF766FF21680222C1F3014102EB410131
:10248000B0FBF1F010BD0000002804BF0120704730
:102490002DE9F04182B00446007843F60006C007FB
:1024A000C4F2020649D0B06800F00C00042809D13B
:1024B0003068800341D5606800283ED1012002B019
:1024C000BDE8F081B06800F00C00082802D1706807
:1024D0004002EDD465683068B5F5A02F05D0B5F59C
:1024E000803F09D140F480300CE040F4802030601F
:1024F000306840F4803005E020F48030306030688F
:1025000020F480203060FFF7EFFD002D054611D04C
:102510003068800311D4FFF7E7FD401B6428F7D92A
:1025200028E100BFFFF7E0FD401B64284FF00300E7
:1025300000F2E08030688003F4D4207880071BD557
:10254000B06810F00C0F09D0B06800F00C0008283B
:1025500040F085807068400200F18180306880071B
:1025600003D5E068012840F09A803068216920F0A6
:10257000F80040EAC10030602078000734D42078A9
:10258000400746D4A5695DB3B06800F00C00082888
:1025900040F09C80012D00F082807068E16900F4B9
:1025A00080028A427BD1216A00F03F028A4276D1C2
:1025B00047F6C071626A0140B1EB821F6FD1A16A18
:1025C0004FF6FF73C903994300F44032A1F58031FF
:1025D0008A4264D1E16A00F07060B0EB016F5ED1B5
:1025E000002002B0BDE8F081606900285BD00020C7
:1025F000C4F247200121C0F8801EFFF775FD054693
:10260000706F8007BBD4FFF76FFD401B0228F7D91E
:10261000B0E0306C5FEAC0080AD400200190306C52
:1026200040F080503064306C00F080500190019890
:1026300047F20007C4F200073868C00526D438689E
:1026400040F480703860FFF74FFD05463868C005DC
:102650001CD4FFF749FD401B0228F7D98AE0E06847
:10266000002840F20000C4F2472053D0012101604D
:10267000FFF73AFD054600BF306880073FF575AFAC
:10268000FFF732FD401B0228F6D973E0A568306FD2
:10269000052D51D0012D56D140F0010059E0012007
:1026A00002B0BDE8F0810020C4F247200021C0F84C
:1026B000801EFFF719FD0546706F80077FF55FAF3D
:1026C000FFF712FD401B0228F6D953E00027C4F2A1
:1026D000472700203866FFF707FD022D05460DD17C
:1026E000306880015DD5FFF7FFFC401B02284FF0EA
:1026F0000300F5D902B0BDE8F08100BF3068800169
:102700007FF56EAFFFF7F0FC401B02284FF003008F
:10271000F4D9EFE700210160FFF7E6FC054600BFB2
:10272000306880077FF528AFFFF7DEFC401B0228EA
:102730004FF00300F4D9DDE740F004003067306F5C
:1027400040F0010005E020F001003067306F20F01C
:1027500004003067FFF7C8FC002D054641F28837BA
:1027600013D000BF306F800712D4FFF7BDFC401BB1
:10277000B842F7D9032002B0BDE8F081FFF7B4FCFE
:10278000401BB8424FF00300B4D8306F8007F5D437
:10279000B8F1000F3FF5F6AE306C20F08050306499
:1027A000F0E604F11C052FCD084340EA8210D9035E
:1027B0004FF6FF729143A1F5803140EA056008436E
:1027C000706001203866FFF78FFC04463068800196
:1027D0003FF506AFFFF788FC001B02284FF003000F
:1027E000F4D987E7411E0020B0EB116F1CBF012018
:1027F00070474EF21002CEF2000251604EF62351A5
:10280000CEF20001F0230B70072190601160704739
:1028100070470000002804BF0120704710B504462F
:1028200090F8410028B9002084F84000204600F0CC
:1028300021F8242084F841002068C16821F4005167
:10284000C160204600F046FA2068016921F49041F9
:102850000161416921F02A014161C16841F40051DF
:10286000C16000202021606484F8411084F8421087
:10287000606310BD2DE9F04786B0044641F20007C1
:102880000068C4F201070026B8420596CDE9036648
:102890000296019602D006B0BDE8F08743F63000FC
:1028A0000096C4F20200416901AD41F0100141619E
:1028B00041694FF0020801F0100100910099009663
:1028C00001684FF0030941F00201016001684FF017
:1028D000070A01F00201009100990096016841F099
:1028E000010101600068294600F001000090009895
:1028F0008020019007F57440CDE90286CDF8109054
:10290000CDF814A0FFF726FB4FF40070CDE90108C5
:1029100003A880E8400607F570402946FFF71AFB38
:1029200040F29C0546F2B840C2F20005C4F2020033
:102930004FF0006140224FF4806385E8470028464D
:10294000C5E90436C5E90666C5E90866FFF712FA67
:10295000002818BFFEF732FEA563AC6306B0BDE8E1
:10296000F0870000B0B590F84140202C1CBF022039
:10297000B0BD134600294FF0010218BF002B01D152
:102980001046B0BD4FF0000C212401628384C38443
:10299000C0F844C080F8414002680446806B42F6AB
:1029A0008D4E42F6CD45C0F6000EC0F60005C0E9DA
:1029B0000FE542F6E935C0F600050432C0E9135CC4
:1029C000FFF778FA30B110206064202084F84100CD
:1029D0000120B0BD20686FF040010160206850E820
:1029E000050F216840F0800041E80502002AF5D17A
:1029F00000221046B0BD0000704700007047000084
:102A0000FEE7000080B540F2740046F20041C2F2D9
:102A10000000C4F200010322002380E80E0000F150
:102A20000C014FF4102C4FF4001E81E80850836114
:102A30008383FEF78DFF002808BF80BDBDE880407E
:102A4000FEF7BCBD80B582B00020019043F6300097
:102A5000C4F202000168002241F4800101600068B4
:102A6000002100F48000019001984620FFF7C2FB8E
:102A7000462002B0BDE88040FFF7AABB81B000202D
:102A800043F630010090C4F202010A6842F00102EC
:102A90000A600A6802F001020092009A00900A6837
:102AA00042F002020A600A6802F002020092009AF2
:102AB00000900A6842F008020A600A6802F0080200
:102AC0000092009A0090086840F080000860086852
:102AD00000F080000090009801B0704780B540F28F
:102AE000FC0041F20001C2F20000C4F20101002327
:102AF0004FF00C0C4FF4E13280E80E00C0E90333D4
:102B0000C0E905C3C361FFF785FE002808BF80BD8B
:102B1000BDE88040FEF752BDFEE70000FEE7000082
:102B20007047000070470000FFF7E4BA70B592B03C
:102B300006AC20463021FDF78DFC002543F6400011
:102B40000595CDE90355CDE901550095C4F2020084
:102B50000168022641F080510160006800F0805059
:102B60000090009847F200000095C4F20000016850
:102B700041F480410160006800F4804000900098BA
:102B80000120099010200A9008200E90A820CDE97D
:102B90000F060420119020460696CDE90C65FFF73C
:102BA00073FC10B172B600BFFEE70F20CDE901063D
:102BB0004FF4A05004904FF48050059001A80521D7
:102BC0000395FFF753FB10B172B600BFFEE712B0DA
:102BD00070BD00004EF68850CEF20000016841F44E
:102BE0007001016070470000806B0168496990F8CE
:102BF0004120212A11D111F080010ED00021C18481
:102C0000016851E8031F026821F0C00142E8031384
:102C1000002BF5D1202180F841100168496990F816
:102C20004220222A2BD111F0400128D00021C18559
:102C3000016851E8031F026821F4907142E8031310
:102C4000002BF5D1016851E8051F026821F0010150
:102C500042E80513002BF5D1016B01290AD100BF11
:102C6000016851E8031F026821F0100142E80313D4
:102C7000002BF5D1202180F8421000210163416C26
:102C800041F010014164FFF7C3BD00000168806B93
:102C90000968C90548BFFFF7AFBE0021C18400BF66
:102CA000016851E8051F026821F0800142E8051320
:102CB000002BF5D1016851E8031F026841F0400183
:102CC00042E80313002BF5D170470000806BFFF73B
:102CD00095BE0000B0B50446006804F108030ECBB1
:102CE0000569194325F440552A4302616269E36985
:102CF0001143C268194349F20C639A431143C160FE
:102D00004169A26921F4407141F20043114340F44A
:102D10008062C4F201039A42416102D1FFF76AFB6B
:102D200001E0FFF753FBE1694FF69C7563681922D8
:102D3000C0F6FF75B1F5004FA0FB02011CD15A008F
:102D4000DB0FFDF7FDFA48F21F51C5F2EB11A0FBB6
:102D500001235A0905F1805302FB0300322303EBE0
:102D6000C000A0FB01014FF4F87000EA111000EB65
:102D70000210C1F3421118E09A009B0FFDF7E0FA30
:102D800048F21F51C5F2EB11A0FB01235A0902FBC7
:102D90000500322303EB0010A0FB0101F02000EA44
:102DA000511000EB0210C1F3431108442168886000
:102DB000B0BD0000FEE70000FFF7AAF9FFF7B6FE7E
:102DC000FFF75CFEFFF73EFEFFF71CFEFFF786FEF7
:102DD00040F27400C2F20000FEF7DAFB002506A400
:102DE00028B20135B0F57A7FC8BF012529B2204647
:102DF00000F004F8F4E700BF2564000083B010B5CC
:102E000081B040F24414844603A8C2F200040EC00C
:102E100003AA204661460092FDF70AFB82B240F207
:102E2000FC00C2F200002146FFF79CFD01B0BDE8A6
:102E3000104003B070475FEA400C08BF91F0000FEC
:102E40004FEA8C234FEAC12243EA51514FEA1C500A
:102E500018BF00F5F0404FEA300018BF41F00041C4
:102E60005FEA6C5C00F02980BCF1FF3F08BF40F0D6
:102E700080407047130C06BF12044FF0100C4FF047
:102E8000000C130E04BF12020CF1080C130F04BF48
:102E900012010CF1040C930F04BF92000CF1020C10
:102EA000D30F04BF52000CF1010C11464FF0000289
:102EB000A0F11F00A0EB0C00704711F0004F08BFFD
:102EC000704731F000413FF4D5AF0B0C06BF090449
:102ED0004FF0100C4FF0000C0B0E04BF09020CF168
:102EE000080C0B0F04BF09010CF1040C8B0F04BF7D
:102EF00089000CF1020CCB0F04BF49000CF1010C4E
:102F0000CCF1200322FA03F341EA030102FA0CF2A6
:102F1000A0EB0C0000F101007047000023F07F4798
:102F200020F07F4C80EA030000F00040ACEB070388
:102F300003F57C5303F1FF032DE9804909B44FEAFF
:102F4000144324EA03484FEA154B25EA0B4E0FF2CF
:102F5000042606EB13273E7803FB0667C7F5000738
:102F600007FB06F64FEAD64606F102064FEA54374B
:102F700007FB066CCCF1005C4FEA1C472CEA074CBF
:102F80000CFB06F507FB06F404EB15464FEA961614
:102F900049085FEA320234BF00204FF000404FEA98
:102FA000D13706FB07FC4FEA1C4C0CFB0BF7D21B7E
:102FB00003FB0CF761EB07010CFB0EF7B0EB0740CE
:102FC00072EB17420CFB08F734BFA2EB0742B2EBDF
:102FD000074261EB17414FEA0C444FEA910706FBA9
:102FE00007FC4FEA1C4C0CFB0BF7B0EBC74072EB35
:102FF000573203FB0CF734BFA2EBC742B2EBC74218
:1030000061EB57310CFB0EF7B0EBC70072EB577258
:103010000CFB08F734BFA2EBC702B2EBC70261EBAF
:1030200057714FEA816141EA92114FEA826242EAA6
:1030300090124FEA806004EBCC04039F4FEAD13733
:1030400006FB07FC4FEA1C4C0CFB0BF7D21B03FBE7
:103050000CF761EB07010CFB0EF7B0EB074072EBCE
:1030600017420CFB08F734BFA2EB0742B2EB074252
:1030700061EB17414FEA8C5504EB9C244FEA910712
:1030800006FB07FC4FEA1C4C0CFB0BF7B0EBC740F0
:1030900072EB573203FB0CF734BFA2EBC742B2EB23
:1030A000C74261EB57310CFB0EF7B0EBC70072EB78
:1030B00057720CFB08F734BFA2EBC702B2EBC70292
:1030C00061EB57714FEA816141EA92114FEA8262E6
:1030D00042EA90124FEA806015EB4C2544F100045F
:1030E0004FEAD13706FB07FC4FEA1C4C0CFB0BF7F1
:1030F000D21B03FB0CF761EB07010CFB0EF7B0EBE7
:10310000074072EB17420CFB08F734BFA2EB0742F3
:10311000B2EB074261EB17414FEA813141EA92413C
:103120004FEA823242EA90424FEA80304FEA0C7610
:1031300015EB1C1544F1000448EA03434EEA0B4822
:103140004FF0000EB2EB080C71EB030724BF624690
:1031500039464EEB0E0E4FF0000B0018524149411C
:103160004BEB0B0BB2EB080C71EB03077BF1000B85
:1031700024BF624639464EEB0E0E4FF0000B00188E
:10318000524149414BEB0B0BB2EB080C71EB0307BF
:103190007BF1000B24BF624639464EEB0E0E51EA1E
:1031A000020718BF46F0010616EB0E7655F1000235
:1031B00054F1000103D5BDE88901BDE80088BDE8F0
:1031C0008901BDE80048B619524141EB0101A3F164
:1031D0000103704780807F7E7D7C7B7A797877766B
:1031E00076757473727171706F6E6E6D6C6C6B6AE4
:1031F0006A69686867666665646463636261616082
:10320000605F5F5E5E5D5D5C5C5B5B5A5A595958FE
:103210005857575656555555545453535252525168
:10322000515050504F4F4F4E4E4D4D4D4C4C4C4BBE
:103230004B4B4A4A4A494949484848474747474605
:103240004646454545444444444343434342424241
:10325000424141419C46002B30D477002BD04FEAAD
:1032600037071CB503B44FF010004FF01001BAF14E
:10327000000F06D0BCF1000FDCBF40F0080040F0AA
:1032800008014FF000000FBCBDE810400BF1010B2E
:10329000BBF1010F08BF5FEA170722BF12F101025D
:1032A00011F101014FF0004143F1000300F0004033
:1032B00043EA00007047F9D35708D0E746EA0646CC
:1032C0004FEA164613F1400F1FDD13F1200FDFBF49
:1032D00016430A46002120335B42BED0C3F12007CB
:1032E00046EA06464FEA164602FA07F746EA070696
:1032F00022FA03F2C3F1200701FA07F742EA0702B4
:1033000021FA03F14FF00003A7E746EA020646EA76
:1033100006464FEA164646EA0106BCBF46EA06469E
:10332000360C4FF000034FF000024FF0000194E71D
:103330002DE9804C70B49A46934691E8380007C84E
:1033400031EA400C48BF34EA430C03D5FFF7E6FDF1
:10335000FFF780FFF0BCBDE8008C2DE9804C70B415
:103360009A46934691E8380007C810F0804F08BF8E
:1033700013F0804F03D100F005F8FFF76BFFF0BCAE
:10338000BDE8008C20F07F4723F07F4C80EA0300EB
:1033900000F0004007EB0C03A3F57C53A3F1FE0300
:1033A00092F0000F00F0B38095F0000F00F07780EE
:1033B0002DE901494FEA114021EA00484FEA14463D
:1033C00024EA064700FB06FC08FB06F607FB08F8A4
:1033D00018EB06484CEB164C00FB07F718EB0748B8
:1033E0004CEB17404FEA124B22EA0B4E4FEA1546C0
:1033F00025EA06470BFB06FC0EFB06F607FB0EFE56
:103400001EEB064E4CEB164C0BFB07F71EEB074E64
:103410004CEB174B18EB0B0840F1000018EB0E0BB0
:1034200058EB000840F100008F1A4FF000014FF0F8
:1034300000063CBFC943661B14BFB5EB040C00215A
:103440003CBFC943F61B4FEA174427EA04454FEA3D
:103450001C472CEA074C04FB076205FB07F70CFB33
:1034600005F616EB074642EB174204FB0CFC16EB85
:103470000C4642EB1C421BEB060658EB0202414194
:103480004EEA8E0E46EA9E0601D5BDE80189B619C0
:10349000524141EB0101A3F10103BDE801894FEA6B
:1034A000144524EA05464FEA114721EA074C05FB7B
:1034B00007F406FB07F70CFB06F111EB074144EBA1
:1034C000174405FB0CFC11EB0C4144EB1C444FEA88
:1034D000124722EA074C05FB07F206FB07F70CFB35
:1034E00006F616EB074642EB174205FB0CFC16EB03
:1034F0000C4642EB1C456A1854F1000148BF704766
:10350000B619524141EB0101A3F10103704795F057
:10351000000F37D04FEA114221EA02464FEA144722
:1035200024EA074C02FB07F106FB07F70CFB06F445
:1035300014EB074441EB174102FB0CFC14EB0C4469
:1035400041EB1C414FEA154725EA074C02FB07F502
:1035500006FB07F70CFB06F616EB074645EB17458F
:1035600002FB0CFC16EB0C4645EB1C42121951F108
:10357000000148BF7047B619524141EB0101A3F168
:10358000010370474FEA144524EA05464FEA114704
:1035900021EA074C05FB07F106FB07F70CFB06F2D7
:1035A00012EB074241EB174105FB0CFC12EB0C42FE
:1035B00051EB1C414FF0000648BF7047921841EB99
:1035C0000101A3F10103704703B401984100009881
:1035D00050EAC12018BF04204A0D18BF40F0010076
:1035E00040F2FF72B2EB515F08BF40F002000128C9
:1035F00008BF052002B0704730380A2801D20120E8
:10360000704700207047000010B500290AD00878E4
:10361000002807D005487844FDF766FF002801D050
:10362000002010BD0248784410BD0000AA0100002F
:10363000A201000010B500290AD00878002807D0A0
:1036400005487844FDF750FF002801D0002010BD48
:103650000248784410BD00009A0100009201000069
:10366000F1EE100A4FF6FF71C0F2C03120EA0100FE
:1036700040F04070E1EE100A7047FDF73DBBFDF7EA
:1036800071BC000000000000000000003031323347
:103690003435363738394142434445464030580086
:1036A00030313233343536373839616263646566B8
:1036B0004030780004000008000000000000000214
:1036C000000100001030313233343536373839617B
:1036D0006263646566787000303132333435363772
:1036E00038394142434445465850000002400000EA
:1036F000000000A00000000005400000000000C81D
:10370000000000000C4000000000409C0000000091
:10371000194000000020BCBE000000003440000042
:10372000BFC91B8E00000004B5400000504BCFD035
:103730006607E2CF010000006C4100003E8251AA02
:10374000DFEEA73401000000D9420000DCB5A0E2A2
:103750003A301F97FFFFFFFFB4450000FD25A0C8CA
:10376000E9A3C14FFFFFFFFFFF3F00000000008003
:1037700000000000FF3F000000000080000000008B
:103780000000000000000000010203040607080911
:1037900000000000010203040006101600061016C7
:1037A000F03800080000002010000000EC010008C4
:1037B0000039000810000020B80700000C020008C3
:1037C0001C00000043000000F8FFFFFF0C00000099
:1037D0000E0000000F0000002E000000100100008D
:1037E00043000000F8FFFFFF0040404040404040E1
:1037F00040404141414141404040404040404040C4
:103800004040404040404040400502020202020267
:1038100002020202020202020220202020202020B6
:1038200020202002020202020202909090909090CA
:103830001010101010101010101010101010101088
:1038400010101010020202020202888888888888FC
:1038500008080808080808080808080808080808E8
:1038600008080808020202024000000000000000F0
:103870000000000000000000000000000000000048
:103880000000000000000000000000000000000038
:103890000000000000000000000000000000000028
:1038A0000000000000000000000000000000000018
:1038B0000000000000000000000000000000000008
:1038C00000000000000000000000000000000000F8
:1038D00000000000000000000000000000000000E8
:1038E00000000000000000000000000000000000D8
:1038F0000024F4000100000010000000000000009F
:040000050800018965
:00000001FF
