:020000040800F2
:100000004807002055020008F9170008DD1600080F
:10001000F51700084D040008A519000800000000AD
:1000200000000000000000000000000001180008AF
:10003000E904000800000000FD170008051800088A
:100040006F0200086F0200086F0200086F020008CC
:100050006F0200086F0200086F0200086F020008BC
:100060006F0200086F0200086F0200086F020008AC
:100070006F0200086F0200086F0200086F0200089C
:100080006F0200086F0200086F0200086F0200088C
:10009000510400085D0400086F0200086F020008A8
:1000A0006F0200086F0200086F0200086F0200086C
:1000B0006F0200086F0200086F0200086F0200085C
:1000C0006F0200086F0200086F0200086F0200084C
:1000D0006F0200086F0200086F0200086F0200083C
:1000E0006F0200086F0200086F0200086F0200082C
:1000F0006F0200086F0200086F0200086F0200081C
:100100006F0200086F0200086F0200086F0200080B
:100110006F0200086F0200086F0200086F020008FB
:100120006F0200086F0200086F0200086F020008EB
:100130006F0200086F0200086F0200086F020008DB
:100140006F0200086F0200086F0200086F020008CB
:100150006F0200086F020008DD0400086F0200084B
:100160006F0200086F0200086F0200086F020008AB
:100170006F0200086F0200086F0200080000000014
:100180006F0200086F02000800F002F800F052F859
:1001900014A696E8000CB244B344DA4501D100F04D
:1001A00049F8BAE80F000FA696E83000A5EB040561
:1001B00004EB0607AAEB0704A7F101074FEA1515A0
:1001C0004FEA3414A4F10104AC4201D300F032F838
:1001D00013F0010F18BFFB1A43F0010300F001F800
:1001E000DBE718474018000060180000103A24BFF1
:1001F00078C878C1FAD8520724BF30C830C144BF8C
:1002000004680C6070470000704700000023002461
:1002100000250026103A28BF78C1FBD8520728BF16
:1002200030C148BF0B6070471FB501F0DEFB1FBD3A
:1002300010B510BD00F0D0F81146FFF7F5FF01F042
:10024000B3FB00F0EEF803B4FFF7F2FF03BC00F0DD
:10025000F5F800000948804709480047FEE7FEE737
:10026000FEE7FEE7FEE7FEE7FEE7FEE7FEE7FEE766
:1002700004480549054A064B70470000B1180008BC
:100280008901000848010020480700204803002099
:100290004803002053EA020C00F069802DE9F04B7E
:1002A0004FF00006002B1FBFB3FA83F503FA05F4E5
:1002B00024FA05F65E4012BF1643B2FA82F502FA3E
:1002C00005F4C5F120051EBF22FA05FC44EA0C0422
:1002D000203556EA044C4FEA144418BF641C4FF012
:1002E00000084FF00009904271EB030C39D300294C
:1002F00019BFB1FA81F701FA07F6B0FA80F700FAF0
:1003000007F6C7F120071EBF20FA07FC46EA0C06D5
:100310002037B6FBF4FCA7EB0507103F07F01F0BD7
:10032000CBF120062CFA06F60CFA0BFB44BFB346C1
:100330000026202FA4BF5E464FF0000B5BEA060CA0
:1003400008BF4FF0010B19EB0B0948EB0608ABFB9C
:10035000027C06FB02CC0BFB03CCC01B71EB0C0137
:10036000C1E70B46024641464846BDE8F08B13B54F
:10037000084318BF4FF0FF300146AFF30080BDE8DF
:100380001C4070474FF0000200B513469446964655
:10039000203922BFA0E80C50A0E80C50B1F1200198
:1003A000BFF4F7AF090728BFA0E80C5048BF0CC046
:1003B0005DF804EB890028BF40F8042B08BF7047A4
:1003C00048BF20F8022B11F0804F18BF00F8012B16
:1003D0007047704770477047754600F02BF8AE467F
:1003E00005006946534620F00700854618B020B541
:1003F000FFF73EFFBDE820404FF000064FF000073A
:100400004FF000084FF0000BAC46ACE8C009ACE878
:10041000C009ACE8C009ACE8C00921F007018D466D
:10042000704710B50446AFF300802046BDE8104089
:10043000FFF709BF0048704710000020014918204D
:10044000ABBEFEE72600020070470000FEE700009A
:1004500040F27000C2F2000000F0ACB840F2700050
:10046000C2F2000000F0A6B810B5044600F090FA01
:100470002046022100F03EF820461021BDE8104041
:1004800000F038B810B588B0DDE90AEC140A8DF830
:1004900001201A0A8DF802204FEA1E220291002143
:1004A0008DF803308DF804204FEA1C22CDE90311AA
:1004B0000591082140F240138DF806200691C2F202
:1004C000000302A96A468DF800408DF805E08DF81A
:1004D00007C000F023F808B010BD000040F29800FB
:1004E000C2F2000000F090BA7047000072B600BF80
:1004F000FEE7000090F82020013A012A04D80068A5
:1005000000F11402002004E000F1240201204FF465
:1005100080211368194311607047000010B590F8EE
:1005200020E0D0F800C0AEF1010EBEF1010FDCF802
:1005300008E011D81EF0E05F14D0CEF30164012072
:10054000A04018608B689BB1D1F804E0C86840EA0D
:10055000CE0040EA030E0FE000F1240301204FF427
:10056000802121E000F1240301204FF400111BE061
:100570000868CB6843EA405E0CF5C07000EB0413DA
:10058000240140F804E00C69184640F8044F097D46
:10059000012903D1016841F4807101605068012193
:1005A000D8601068986000201A681143196010BD67
:1005B000704700002DE9F04F81B00446006846699D
:1005C000D0F804908768D0F80CB0D0F810A0D0F81C
:1005D0001880F10703D1002530071CD423E0F90768
:1005E00010D00121BA07816009D4780700F1AA80F0
:1005F000380700F1B080204600F0F8F902E020460C
:1006000000F0F6F90025F80500F18480F80300F108
:10061000AA80300707D51BF0100004D0206845F4ED
:1006200000751021C160700708D51BF0080005D0C7
:1006300020680821C160204600F0A0F9B00706D567
:100640002068C068800702D0204600F099F9700643
:1006500007D51AF0100004D0206845F480651021F9
:100660000161B00608D51AF0080005D020680821FD
:100670000161204600F086F9F00606D52068006981
:10068000800702D0204600F07FF9B00308D519F0AA
:10069000100005D0206810214160204600F076F956
:1006A000F00308D519F0080005D020680821416042
:1006B000204600F0A7F9300440F18F805FEA4970CE
:1006C00040F1888006F4807008EA102028435FEA31
:1006D0008871014648BF41F00201B20558BF01468A
:1006E0005FEA48700D4648BF45F00405700558BFE5
:1006F0000D4630056ED518F070006BD0103800092B
:10070000052862D8DFE800F0035C5659535F45F0D6
:1007100008055AE020684FF48071BA0581600AD458
:10072000780512D4380519D4204600F063F9F8038F
:100730007FF56FAF17E0204600F05EF9F8037FF514
:1007400068AF10E04FF400655DE705F50055F8036C
:100750007FF55FAF07E04FF4805554E705F580451E
:10076000F8037FF556AF20684FF48031BA038160FB
:100770000AD478030FD4380313D4204600F03EF98E
:1007800030073FF548AF4EE7204600F039F9300713
:100790003FF541AF47E705F5004530073FF53BAF73
:1007A00041E705F5803530073FF535AF3BE745F0CC
:1007B00080050AE045F0200507E045F0400504E02B
:1007C00045F0100501E045F480752068816921F04D
:1007D000700181612068042141604DB1606A40EA86
:1007E00005012046616201B0BDE8F04FFFF7E0BEB1
:1007F00001B0BDE8F08F0000002804BF0120704761
:10080000B0B5044690F8200010B9204600F06EF80C
:100810002068016841F00101016000F023FB0546FA
:1008200020684168C90705D100F01CFB401B0B285C
:10083000F6D310E0016821F00201016000F012FB24
:10084000054600BF2068416889070DD500F00AFB06
:10085000401B0B28F6D3606A052140F4003060622B
:10086000012084F82010B0BD217E0268012922F009
:10087000800208BF80320260617E0268012922F096
:10088000400208BF40320260A17E0268012922F0C6
:10089000200208BF20320260E17E0268012922F0B6
:1008A000100218BF10320260217F0268012922F075
:1008B000080208BF08320260617F0268012922F045
:1008C000040208BF04320260D4E901C2D4E903354E
:1008D00061691A432A431143ACF101021143C1611A
:1008E00000200121606284F82010B0BD80B586B080
:1008F00046F200410068C4F20001002288420592DD
:10090000CDE903220292019201D006B080BD43F6E8
:1009100030000092C4F20200036943F000730361E7
:10092000036903F000730093009B0092036843F097
:10093000080303600068022300F00800009000989C
:100940000320019004900920059001F5D43001A9FD
:10095000CDE9023200F0BCF914200021002200F0A1
:1009600007FB142000F0F2FA15200021002200F00D
:10097000FFFA152000F0EAFA06B080BD70470000CB
:10098000704700007047000070470000704700008B
:10099000B0B5044690F8200001281DD1022084F84B
:1009A00020002068016821F00101016000F05AFA7E
:1009B000054600BF20684068C00713D000F052FA17
:1009C000401B0B28F6D3606A40F4003060620520BB
:1009D00084F820000120B0BD606A40F4002060620D
:1009E0000120B0BD00206062B0BD00007047000073
:1009F000704700007047000070470000704700001B
:100A00007047000070470000F0B581B000210091F0
:100A100040F20001C2F200010B68D0E9166148F211
:100A2000B51537680822C1F64E358A403A42A3FB15
:100A300005350CD003681C68640708D51C6824F0D1
:100A400004041C60B260426D42F001024265012262
:100A50008A403A4208D003685B691B0604D5B2603D
:100A6000426D42F00202426504228A403A4208D0B6
:100A700003681B689B0704D5B260426D42F0040214
:100A8000426510228A403A4216D001680B681B0763
:100A900012D5B2600B680A685B0306D4D20506D48F
:100AA0000A6822F008020A6001E011033FD4016CD9
:100AB00011B1044688472046C26D202101FA02F395
:100AC0003B4241D001680F68FF063DD5B36090F806
:100AD00035700B68052F1AD123F016030B604B6994
:100AE00023F080034B61036C0BB9836C1BB10B6863
:100AF00023F008030B603F219140B160012180F891
:100B00003510016D002280F83420D9BB3EE00A6820
:100B10005B0310D4D20512D40A6822F010020A60D6
:100B2000012180F83510002180F8341007E0816C35
:100B30000029BED1C0E7110301D4416C00E0C16BB4
:100B400011B1044688472046416DF9B1416DC9078E
:100B500016D0052180F835100168AA0A0B6823F029
:100B600001030B60009B01339342009302D80B6892
:100B7000DB07F7D1012180F83510002180F834100F
:100B8000C16C19B101B0BDE8F040084701B0F0BD3B
:100B90002DE9F041044600F065F9C4B10546022094
:100BA00084F835000020216884F83400086820F0BB
:100BB0000100086020680168C9070BD000F052F9F5
:100BC000401B0528F6D90321202203207AE00120CA
:100BD000BDE8F081016848F23F02CFF21002D4E98B
:100BE000013501EA020ED4E9032143EA0E032B4347
:100BF000D4E9056C1A43D4E907781143314341EA3B
:100C00000702616A42EA0802042942EA0C0303D19E
:100C1000D4E90B273A43134303604269042922F0C5
:100C2000070241EA02012DD1D4E90A5341EA050144
:100C300043B3BCF5005F08D0BCF1000F12D1022D08
:100C400016D0012D07D09DB119E0032D17D8DFE88C
:100C500005F00B0F0B02A3F1C072B2FA82F2520937
:100C60004AB90FE0032D02D2012222B90AE006D1CF
:100C7000C3F3006232B101214022012022E00022B0
:100C8000002AF8D100F0F8024AF6AB23103ACAF66F
:100C9000AA23A2FB033741F61C2341613909C0F6A0
:100CA0000003595C40F2FF3398435F2A4FF03F0244
:100CB00088BF0430C4E9160102FA01F18160002204
:100CC00001210020626584F83510BDE8F081000044
:100CD0002DE9F04F83B000F1200200F13E4741F6CC
:100CE0000045009207F1FF77C4F2020508224FEA9F
:100CF000B726A84208BF0722072E38BF4FEAB722FF
:100D000000274FF0000A4FF0000801920AE000BFF0
:100D100008F101080AF1020AB8F1100F07F10407FF
:100D200000F09D800D68012202FA08FC15EA0C090A
:100D3000EED04D68032205F0030BABF10106012E46
:100D400002FA0AFE10D88668CC6826EA0E0604FA73
:100D50000AF4344384604468C5F3001524EA0C06A1
:100D600005FA08F52E434660BBF1030F1BD0C66899
:100D70008D6826EA0E0605FA0AF52E43BBF1020F2E
:100D8000C66010D16FF00302009D02EA580655F8C4
:100D900006C007F01C040F220B69A2402CEA0202D5
:100DA000A3401A43AA5102684B6822EA0E0203F0DC
:100DB000030606FA0AF6324313F4403F0260A7D056
:100DC000002243F644030292C4F202031A6843F677
:100DD000004442F480421A601A68C4F2010402F42A
:100DE00080420292029A28F003024FF6084C2244F5
:100DF000CFF6FF7C52F80C3007F00C060F25B540FB
:100E0000AB43019D05FA06F6334342F80C30A26865
:100E10004B6842EA090643F60C4CDD0258BF22EA51
:100E20000906A660C4F2010CDCF800209D0242EA2B
:100E3000090658BF22EA0906CCF8006062689D03E3
:100E400042EA090658BF22EA090666602268DB0307
:100E500042EA090658BF22EA0906266058E703B0AD
:100E6000BDE8F08F40F24410C2F200000068704705
:100E700040F2040040F24411C2F20000C2F200014C
:100E800000780A68104408607047000080B543F697
:100E90000040C4F20200016841F400710160016881
:100EA00041F480610160016841F4807101600320B8
:100EB00000F08AF80F2000F005F800F02BF8002071
:100EC00080BD0000B0B540F20402C2F2000240F260
:100ED00000011278C2F200014FF47A730968B3FB83
:100EE000F2F20446B1FBF2F1084600F039FB0F2C98
:100EF0004FF001050CD858B94FF0FF3021460022C1
:100F0000002500F035F840F20800C2F2000004604D
:100F10002846B0BD82B0002043F640010190C4F2E3
:100F200002014A6842F480424A604A6802F4804200
:100F30000192019A0090086840F0805008600868AB
:100F400000F080500090009802B07047002848BF21
:100F5000704700F01F01012202FA01F11C2202EA8F
:100F6000D0004EF20012CEF2000281507047000015
:100F700010B54EF60C5CCEF2000CDCF80030C3F37A
:100F8000022E8EF00704042C28BF0424BEF10303B4
:100F90004FF0FF3E0EFA04F438BF0023A1439940FE
:100FA0000EFA03F39A43114300F1604200F00F037D
:100FB000090102F56442043B6344002848BF03F181
:100FC0000C02117010BD00004EF60C51CEF2000163
:100FD0000A684FF6FF031A4060F30A2242F080606D
:100FE00040F0FD7008607047002804BF0120704782
:100FF0002DE9F04143F60808C4F202080446D8F887
:10100000F8030D4600F00700814207D988F8F8532D
:10101000D8F8F80300F00700A84276D120688107CD
:1010200017D5410705D5D8F8001041F4E051C8F8AC
:101030000010010705D5D8F8001041F46041C8F848
:101040000010D8F80010A26821F0F0011143C8F890
:101050000010C0073FD1D8F8F80300F00700854220
:1010600007D288F8F853D8F8F80300F00700A84230
:101070004BD12068410707D5D8F80010E26821F469
:10108000E0511143C8F80010000708D5D8F8000057
:10109000216920F4604040EAC100C8F8000000F077
:1010A0007BF8D8F8001041F60422C1F30311C0F612
:1010B0000002515C40F2000220FA01F140F2080007
:1010C000C2F200000068C2F200021160FFF7FAFEEF
:1010D0000020BDE8F0816068811E022907D258F81F
:1010E000081C89015CBF0120BDE8F08110E00128E7
:1010F00007D158F8081C89035CBF0120BDE8F081C6
:1011000006E058F8081C890702D40120BDE8F081E8
:10111000D8F8001021F003010843C8F80000FFF7D9
:10112000A1FE064641F28837D8F80000616800F059
:101130000C00B0EB810F8ED0FFF794FE801BB842FD
:10114000F2D90320BDE8F08140F2000043F6080127
:10115000C2F20000C4F202010068096841F61422DC
:10116000C1F38221C0F60002515CC8407047000004
:1011700040F2000043F60801C2F20000C4F202018E
:101180000068096841F61422C1F34231C0F600023A
:10119000515CC8407047000010B543F60404C4F227
:1011A00002046168C1F3810142F20040C0F2F40020
:1011B000DFE801F00203080210BD47F64000C0F26C
:1011C0007D1010BD206821682368490247F6400160
:1011D000C0F27D1100F03F02C3F388105CBF42F201
:1011E0000041C0F2F401A1FB00010023FFF752F817
:1011F00021680222C1F3014102EB4101B0FBF1F091
:1012000010BD0000002804BF012070472DE9F04107
:1012100082B00446007843F60006C007C4F2020616
:1012200049D0B06800F00C00042809D13068800370
:1012300041D5606800283ED1012002B0BDE8F081B0
:10124000B06800F00C00082802D170684002EDD4AC
:1012500065683068B5F5A02F05D0B5F5803F09D198
:1012600040F480300CE040F480203060306840F47E
:10127000803005E020F480303060306820F4802039
:101280003060FFF7EFFD002D054611D03068800378
:1012900011D4FFF7E7FD401B6428F7D928E100BF10
:1012A000FFF7E0FD401B64284FF0030000F2E080F0
:1012B00030688003F4D4207880071BD5B06810F024
:1012C0000C0F09D0B06800F00C00082840F08580B1
:1012D0007068400200F181803068800703D5E068C3
:1012E000012840F09A803068216920F0F80040EA37
:1012F000C10030602078000734D42078400746D4FD
:10130000A5695DB3B06800F00C00082840F09C802F
:10131000012D00F082807068E16900F480028A4249
:101320007BD1216A00F03F028A4276D147F6C07134
:10133000626A0140B1EB821F6FD1A16A4FF6FF7361
:10134000C903994300F44032A1F580318A4264D147
:10135000E16A00F07060B0EB016F5ED1002002B076
:10136000BDE8F081606900285BD00020C4F247200E
:101370000121C0F8801EFFF775FD0546706F8007DC
:10138000BBD4FFF76FFD401B0228F7D9B0E0306CEB
:101390005FEAC0080AD400200190306C40F0805011
:1013A0003064306C00F080500190019847F20007E3
:1013B000C4F200073868C00526D4386840F480704D
:1013C0003860FFF74FFD05463868C0051CD4FFF7AD
:1013D00049FD401B0228F7D98AE0E068002840F266
:1013E0000000C4F2472053D001210160FFF73AFD0D
:1013F000054600BF306880073FF575AFFFF732FD47
:10140000401B0228F6D973E0A568306F052D51D036
:10141000012D56D140F0010059E0012002B0BDE895
:10142000F0810020C4F247200021C0F8801EFFF7A1
:1014300019FD0546706F80077FF55FAFFFF712FD5E
:10144000401B0228F6D953E00027C4F247270020AA
:101450003866FFF707FD022D05460DD13068800183
:101460005DD5FFF7FFFC401B02284FF00300F5D9C4
:1014700002B0BDE8F08100BF306880017FF56EAF3B
:10148000FFF7F0FC401B02284FF00300F4D9EFE710
:1014900000210160FFF7E6FC054600BF30688007C9
:1014A0007FF528AFFFF7DEFC401B02284FF003005A
:1014B000F4D9DDE740F004003067306F40F0010000
:1014C00005E020F001003067306F20F00400306745
:1014D000FFF7C8FC002D054641F2883713D000BF46
:1014E000306F800712D4FFF7BDFC401BB842F7D91C
:1014F000032002B0BDE8F081FFF7B4FC401BB84206
:101500004FF00300B4D8306F8007F5D4B8F1000F66
:101510003FF5F6AE306C20F080503064F0E604F118
:101520001C052FCD084340EA8210D9034FF6FF7205
:101530009143A1F5803140EA0560084370600120C5
:101540003866FFF78FFC0446306880013FF506AF30
:10155000FFF788FC001B02284FF00300F4D987E74F
:10156000411E0020B0EB116F1CBF012070474EF2EE
:101570001002CEF2000251604EF62351CEF200016D
:10158000F0230B700721906011607047002804BFA2
:101590000120704710B5044690F8410028B900209A
:1015A00084F84000204600F021F8242084F841000F
:1015B0002068C16821F40051C160204600F082F922
:1015C0002068016921F490410161416921F02A01FB
:1015D0004161C16841F40051C16000202021606474
:1015E00084F8411084F84210606310BD2DE9F04783
:1015F00086B0044641F200070068C4F201070026E5
:10160000B8420596CDE903660296019602D006B06F
:10161000BDE8F08743F630000096C4F2020041694D
:1016200001AD41F01001416141694FF0020801F044
:10163000100100910099009601684FF0030941F0F4
:101640000201016001684FF0070A01F002010091F8
:1016500000990096016841F0010101600068294687
:1016600000F00100009000988020019007F5744080
:10167000CDE90286CDF81090CDF814A0FFF728FB35
:101680004FF40070CDE9010803A880E8400607F593
:1016900070402946FFF71CFB40F2980546F2B8401F
:1016A000C2F20005C4F202004FF0006140224FF484
:1016B000806385E847002846C5E90436C5E9066623
:1016C000C5E90866FFF764FA002818BFFEF70EFFA9
:1016D000A563AC6306B0BDE8F0870000FEE700003C
:1016E00080B540F2700046F20041C2F20000C4F240
:1016F00000010322002380E80E0000F10C014FF4EA
:10170000102C4FF4001E81E8085083618383FFF79B
:1017100073F8002808BF80BDBDE88040FEF7E6BE34
:1017200080B582B00020019043F63000C4F2020080
:101730000168002241F4800101600068002100F48A
:101740008000019001984620FFF712FC462002B06D
:10175000BDE88040FFF7FABB81B0002043F63001BE
:101760000090C4F202010A6842F001020A600A68AD
:1017700002F001020092009A00900A6842F0020210
:101780000A600A6802F002020092009A00900A6859
:1017900042F008020A600A6802F008020092009A09
:1017A0000090086840F080000860086800F0800041
:1017B0000090009801B0704780B540F2F80041F207
:1017C0000001C2F20000C4F2010100234FF00C0C32
:1017D0004FF4E13280E80E00C0E90333C0E905C3ED
:1017E000C361FFF7D3FE002808BF80BDBDE880407D
:1017F000FEF77CBEFEE70000FEE700007047000039
:1018000070470000FFF734BB70B592B006AC2046BD
:101810003021FEF7B7FD002543F640000595CDE9E0
:101820000355CDE901550095C4F202000168022676
:1018300041F080510160006800F0805000900098F5
:1018400047F200000095C4F20000016841F48041B5
:101850000160006800F48040009000980120099029
:1018600010200A9008200E90A820CDE90F06042031
:10187000119020460696CDE90C65FFF7C3FC10B128
:1018800072B600BFFEE70F20CDE901064FF4A0506D
:1018900004904FF48050059001A805210395FFF7AF
:1018A000A3FB10B172B600BFFEE712B070BD00001E
:1018B0004EF68850CEF20000016841F470010160DC
:1018C00070470000B0B50446006804F108030ECB71
:1018D0000569194325F440552A4302616269E369A9
:1018E0001143C268194349F20C639A431143C16022
:1018F0004169A26921F4407141F20043114340F46F
:101900008062C4F201039A42416102D1FFF730FCC8
:1019100001E0FFF719FCE1694FF69C756368192235
:10192000C0F6FF75B1F5004FA0FB02011CD15A00B3
:10193000DB0FFEF7AFFC48F21F51C5F2EB11A0FB25
:1019400001235A0905F1805302FB0300322303EB04
:10195000C000A0FB01014FF4F87000EA111000EB89
:101960000210C1F3421118E09A009B0FFEF792FC9F
:1019700048F21F51C5F2EB11A0FB01235A0902FBEB
:101980000500322303EB0010A0FB0101F02000EA68
:10199000511000EB0210C1F3431108442168886024
:1019A000B0BD0000FEE7000082B0FFF76FFAFFF75E
:1019B0002BFFFFF7D1FEFFF7B3FEFFF791FEFFF716
:1019C000FBFE40F27004C2F200042046FEF74CFD1C
:1019D000002500BF20464FF400714FF4C872002369
:1019E00000950195FEF74EFDF4E7F1EE100A4FF673
:1019F000FF71C0F2C03120EA010040F04070E1EE1A
:101A0000100A7047000000000000000001020304FB
:101A10000607080900000000010203040006101672
:101A200000061016481A00080000002010000000F0
:101A3000EC010008581A00081000002038070000C8
:101A40000C020008000000000024F4000100000067
:081A500010000000000000007E
:040000050800018965
:00000001FF
